{
  "address": "0xB42b6784B89728eB38DBef3C4e1e97a2DB3BEb18",
  "abi": [
    {
      "inputs": [],
      "stateMutability": "nonpayable",
      "type": "constructor"
    },
    {
      "anonymous": false,
      "inputs": [
        {
          "indexed": true,
          "internalType": "address",
          "name": "owner",
          "type": "address"
        },
        {
          "indexed": true,
          "internalType": "address",
          "name": "approved",
          "type": "address"
        },
        {
          "indexed": true,
          "internalType": "uint256",
          "name": "tokenId",
          "type": "uint256"
        }
      ],
      "name": "Approval",
      "type": "event"
    },
    {
      "anonymous": false,
      "inputs": [
        {
          "indexed": true,
          "internalType": "address",
          "name": "owner",
          "type": "address"
        },
        {
          "indexed": true,
          "internalType": "address",
          "name": "operator",
          "type": "address"
        },
        {
          "indexed": false,
          "internalType": "bool",
          "name": "approved",
          "type": "bool"
        }
      ],
      "name": "ApprovalForAll",
      "type": "event"
    },
    {
      "anonymous": false,
      "inputs": [
        {
          "indexed": false,
          "internalType": "uint256",
          "name": "_fromTokenId",
          "type": "uint256"
        },
        {
          "indexed": false,
          "internalType": "uint256",
          "name": "_toTokenId",
          "type": "uint256"
        }
      ],
      "name": "BatchMetadataUpdate",
      "type": "event"
    },
    {
      "anonymous": false,
      "inputs": [
        {
          "indexed": false,
          "internalType": "uint256",
          "name": "_tokenId",
          "type": "uint256"
        }
      ],
      "name": "MetadataUpdate",
      "type": "event"
    },
    {
      "anonymous": false,
      "inputs": [
        {
          "indexed": true,
          "internalType": "address",
          "name": "previousOwner",
          "type": "address"
        },
        {
          "indexed": true,
          "internalType": "address",
          "name": "newOwner",
          "type": "address"
        }
      ],
      "name": "OwnershipTransferred",
      "type": "event"
    },
    {
      "anonymous": false,
      "inputs": [
        {
          "indexed": true,
          "internalType": "uint256",
          "name": "tokenId",
          "type": "uint256"
        },
        {
          "indexed": true,
          "internalType": "address",
          "name": "buyer",
          "type": "address"
        },
        {
          "indexed": true,
          "internalType": "address",
          "name": "seller",
          "type": "address"
        },
        {
          "indexed": false,
          "internalType": "uint256",
          "name": "price",
          "type": "uint256"
        },
        {
          "indexed": false,
          "internalType": "uint256",
          "name": "timestamp",
          "type": "uint256"
        }
      ],
      "name": "PurchaseNFT",
      "type": "event"
    },
    {
      "anonymous": false,
      "inputs": [
        {
          "indexed": true,
          "internalType": "address",
          "name": "from",
          "type": "address"
        },
        {
          "indexed": true,
          "internalType": "address",
          "name": "to",
          "type": "address"
        },
        {
          "indexed": true,
          "internalType": "uint256",
          "name": "tokenId",
          "type": "uint256"
        }
      ],
      "name": "Transfer",
      "type": "event"
    },
    {
      "inputs": [
        {
          "internalType": "uint256",
          "name": "tokenId",
          "type": "uint256"
        }
      ],
      "name": "Bid",
      "outputs": [],
      "stateMutability": "payable",
      "type": "function"
    },
    {
      "inputs": [
        {
          "internalType": "uint256",
          "name": "tokenId",
          "type": "uint256"
        }
      ],
      "name": "addAvailableToken",
      "outputs": [],
      "stateMutability": "nonpayable",
      "type": "function"
    },
    {
      "inputs": [
        {
          "internalType": "address[]",
          "name": "recipients",
          "type": "address[]"
        },
        {
          "internalType": "string",
          "name": "uri",
          "type": "string"
        }
      ],
      "name": "airdropNFT",
      "outputs": [],
      "stateMutability": "nonpayable",
      "type": "function"
    },
    {
      "inputs": [
        {
          "internalType": "address",
          "name": "to",
          "type": "address"
        },
        {
          "internalType": "uint256",
          "name": "tokenId",
          "type": "uint256"
        }
      ],
      "name": "approve",
      "outputs": [],
      "stateMutability": "nonpayable",
      "type": "function"
    },
    {
      "inputs": [
        {
          "internalType": "uint256",
          "name": "",
          "type": "uint256"
        }
      ],
      "name": "auctions",
      "outputs": [
        {
          "internalType": "address",
          "name": "seller",
          "type": "address"
        },
        {
          "internalType": "uint256",
          "name": "tokenId",
          "type": "uint256"
        },
        {
          "internalType": "uint256",
          "name": "minBid",
          "type": "uint256"
        },
        {
          "internalType": "uint256",
          "name": "highestBid",
          "type": "uint256"
        },
        {
          "internalType": "address",
          "name": "highestBidder",
          "type": "address"
        },
        {
          "internalType": "uint256",
          "name": "endTime",
          "type": "uint256"
        },
        {
          "internalType": "bool",
          "name": "active",
          "type": "bool"
        }
      ],
      "stateMutability": "view",
      "type": "function"
    },
    {
      "inputs": [
        {
          "internalType": "uint256",
          "name": "",
          "type": "uint256"
        }
      ],
      "name": "availableTokens",
      "outputs": [
        {
          "internalType": "uint256",
          "name": "",
          "type": "uint256"
        }
      ],
      "stateMutability": "view",
      "type": "function"
    },
    {
      "inputs": [
        {
          "internalType": "address",
          "name": "owner",
          "type": "address"
        }
      ],
      "name": "balanceOf",
      "outputs": [
        {
          "internalType": "uint256",
          "name": "",
          "type": "uint256"
        }
      ],
      "stateMutability": "view",
      "type": "function"
    },
    {
      "inputs": [
        {
          "internalType": "uint256",
          "name": "tokenId",
          "type": "uint256"
        }
      ],
      "name": "burnNFT",
      "outputs": [],
      "stateMutability": "nonpayable",
      "type": "function"
    },
    {
      "inputs": [],
      "name": "buyMysteryBox",
      "outputs": [
        {
          "internalType": "uint256",
          "name": "",
          "type": "uint256"
        }
      ],
      "stateMutability": "payable",
      "type": "function"
    },
    {
      "inputs": [
        {
          "internalType": "uint256",
          "name": "tokenId",
          "type": "uint256"
        }
      ],
      "name": "buyNFT",
      "outputs": [],
      "stateMutability": "payable",
      "type": "function"
    },
    {
      "inputs": [
        {
          "internalType": "uint256",
          "name": "tokenId",
          "type": "uint256"
        },
        {
          "internalType": "uint256",
          "name": "price",
          "type": "uint256"
        },
        {
          "internalType": "uint256",
          "name": "timestamp",
          "type": "uint256"
        },
        {
          "internalType": "bytes",
          "name": "signatureSeller",
          "type": "bytes"
        }
      ],
      "name": "buyNFTWithMultiSig",
      "outputs": [],
      "stateMutability": "payable",
      "type": "function"
    },
    {
      "inputs": [
        {
          "internalType": "uint256",
          "name": "tokenId",
          "type": "uint256"
        },
        {
          "internalType": "uint256",
          "name": "price",
          "type": "uint256"
        },
        {
          "internalType": "uint256",
          "name": "timestamp",
          "type": "uint256"
        },
        {
          "internalType": "uint256",
          "name": "nonce",
          "type": "uint256"
        },
        {
          "internalType": "bytes",
          "name": "signatureSeller",
          "type": "bytes"
        }
      ],
      "name": "buyNFTWithNonce",
      "outputs": [],
      "stateMutability": "payable",
      "type": "function"
    },
    {
      "inputs": [
        {
          "internalType": "uint256",
          "name": "tokenId",
          "type": "uint256"
        }
      ],
      "name": "claimLoyaltyReward",
      "outputs": [],
      "stateMutability": "nonpayable",
      "type": "function"
    },
    {
      "inputs": [
        {
          "internalType": "uint256",
          "name": "tokenId",
          "type": "uint256"
        },
        {
          "internalType": "uint256",
          "name": "minBid",
          "type": "uint256"
        },
        {
          "internalType": "uint256",
          "name": "duration",
          "type": "uint256"
        }
      ],
      "name": "createAuction",
      "outputs": [],
      "stateMutability": "nonpayable",
      "type": "function"
    },
    {
      "inputs": [
        {
          "internalType": "uint256",
          "name": "tokenId",
          "type": "uint256"
        },
        {
          "internalType": "uint256",
          "name": "totalShares",
          "type": "uint256"
        }
      ],
      "name": "createFractionalNFT",
      "outputs": [],
      "stateMutability": "nonpayable",
      "type": "function"
    },
    {
      "inputs": [
        {
          "internalType": "uint256",
          "name": "tokenId",
          "type": "uint256"
        },
        {
          "internalType": "uint256",
          "name": "rentPrice",
          "type": "uint256"
        },
        {
          "internalType": "uint256",
          "name": "duration",
          "type": "uint256"
        }
      ],
      "name": "createRental",
      "outputs": [],
      "stateMutability": "nonpayable",
      "type": "function"
    },
    {
      "inputs": [
        {
          "internalType": "uint256",
          "name": "tokenId",
          "type": "uint256"
        }
      ],
      "name": "endAuction",
      "outputs": [],
      "stateMutability": "nonpayable",
      "type": "function"
    },
    {
      "inputs": [
        {
          "internalType": "uint256",
          "name": "tokenId",
          "type": "uint256"
        }
      ],
      "name": "endRental",
      "outputs": [],
      "stateMutability": "nonpayable",
      "type": "function"
    },
    {
      "inputs": [
        {
          "internalType": "uint256",
          "name": "",
          "type": "uint256"
        }
      ],
      "name": "fractionalOwnerships",
      "outputs": [
        {
          "internalType": "uint256",
          "name": "totalShares",
          "type": "uint256"
        }
      ],
      "stateMutability": "view",
      "type": "function"
    },
    {
      "inputs": [
        {
          "internalType": "uint256",
          "name": "tokenId",
          "type": "uint256"
        }
      ],
      "name": "getApproved",
      "outputs": [
        {
          "internalType": "address",
          "name": "",
          "type": "address"
        }
      ],
      "stateMutability": "view",
      "type": "function"
    },
    {
      "inputs": [
        {
          "internalType": "uint256",
          "name": "tokenId",
          "type": "uint256"
        },
        {
          "internalType": "address",
          "name": "owner",
          "type": "address"
        }
      ],
      "name": "getShares",
      "outputs": [
        {
          "internalType": "uint256",
          "name": "",
          "type": "uint256"
        }
      ],
      "stateMutability": "view",
      "type": "function"
    },
    {
      "inputs": [
        {
          "internalType": "uint256",
          "name": "tokenId",
          "type": "uint256"
        }
      ],
      "name": "getTokenRarity",
      "outputs": [
        {
          "internalType": "enum YourCollectible.Rarity",
          "name": "",
          "type": "uint8"
        }
      ],
      "stateMutability": "view",
      "type": "function"
    },
    {
      "inputs": [
        {
          "internalType": "uint256",
          "name": "tokenId",
          "type": "uint256"
        }
      ],
      "name": "getTokenTransactionHistory",
      "outputs": [
        {
          "components": [
            {
              "internalType": "address",
              "name": "seller",
              "type": "address"
            },
            {
              "internalType": "address",
              "name": "buyer",
              "type": "address"
            },
            {
              "internalType": "uint256",
              "name": "price",
              "type": "uint256"
            },
            {
              "internalType": "uint256",
              "name": "timestamp",
              "type": "uint256"
            }
          ],
          "internalType": "struct YourCollectible.TransactionHistory[]",
          "name": "",
          "type": "tuple[]"
        }
      ],
      "stateMutability": "view",
      "type": "function"
    },
    {
      "inputs": [
        {
          "internalType": "uint256",
          "name": "tokenId",
          "type": "uint256"
        }
      ],
      "name": "getTotalShares",
      "outputs": [
        {
          "internalType": "uint256",
          "name": "",
          "type": "uint256"
        }
      ],
      "stateMutability": "view",
      "type": "function"
    },
    {
      "inputs": [
        {
          "internalType": "address",
          "name": "to",
          "type": "address"
        },
        {
          "internalType": "uint256",
          "name": "tokenId",
          "type": "uint256"
        }
      ],
      "name": "giftNFT",
      "outputs": [],
      "stateMutability": "nonpayable",
      "type": "function"
    },
    {
      "inputs": [
        {
          "internalType": "uint256",
          "name": "",
          "type": "uint256"
        }
      ],
      "name": "holdingStartTime",
      "outputs": [
        {
          "internalType": "uint256",
          "name": "",
          "type": "uint256"
        }
      ],
      "stateMutability": "view",
      "type": "function"
    },
    {
      "inputs": [
        {
          "internalType": "address",
          "name": "owner",
          "type": "address"
        },
        {
          "internalType": "address",
          "name": "operator",
          "type": "address"
        }
      ],
      "name": "isApprovedForAll",
      "outputs": [
        {
          "internalType": "bool",
          "name": "",
          "type": "bool"
        }
      ],
      "stateMutability": "view",
      "type": "function"
    },
    {
      "inputs": [],
      "name": "loyaltyPeriod",
      "outputs": [
        {
          "internalType": "uint256",
          "name": "",
          "type": "uint256"
        }
      ],
      "stateMutability": "view",
      "type": "function"
    },
    {
      "inputs": [
        {
          "internalType": "uint256",
          "name": "",
          "type": "uint256"
        }
      ],
      "name": "loyaltyRewardClaimed",
      "outputs": [
        {
          "internalType": "bool",
          "name": "",
          "type": "bool"
        }
      ],
      "stateMutability": "view",
      "type": "function"
    },
    {
      "inputs": [
        {
          "internalType": "address",
          "name": "to",
          "type": "address"
        },
        {
          "internalType": "string[]",
          "name": "uris",
          "type": "string[]"
        }
      ],
      "name": "mintBatch",
      "outputs": [
        {
          "internalType": "uint256[]",
          "name": "",
          "type": "uint256[]"
        }
      ],
      "stateMutability": "nonpayable",
      "type": "function"
    },
    {
      "inputs": [
        {
          "internalType": "address",
          "name": "to",
          "type": "address"
        },
        {
          "internalType": "string",
          "name": "uri",
          "type": "string"
        }
      ],
      "name": "mintItem",
      "outputs": [
        {
          "internalType": "uint256",
          "name": "",
          "type": "uint256"
        }
      ],
      "stateMutability": "nonpayable",
      "type": "function"
    },
    {
      "inputs": [],
      "name": "mysteryBoxPrice",
      "outputs": [
        {
          "internalType": "uint256",
          "name": "",
          "type": "uint256"
        }
      ],
      "stateMutability": "view",
      "type": "function"
    },
    {
      "inputs": [],
      "name": "name",
      "outputs": [
        {
          "internalType": "string",
          "name": "",
          "type": "string"
        }
      ],
      "stateMutability": "view",
      "type": "function"
    },
    {
      "inputs": [
        {
          "internalType": "uint256",
          "name": "",
          "type": "uint256"
        }
      ],
      "name": "nonces",
      "outputs": [
        {
          "internalType": "uint256",
          "name": "",
          "type": "uint256"
        }
      ],
      "stateMutability": "view",
      "type": "function"
    },
    {
      "inputs": [],
      "name": "owner",
      "outputs": [
        {
          "internalType": "address",
          "name": "",
          "type": "address"
        }
      ],
      "stateMutability": "view",
      "type": "function"
    },
    {
      "inputs": [
        {
          "internalType": "uint256",
          "name": "tokenId",
          "type": "uint256"
        }
      ],
      "name": "ownerOf",
      "outputs": [
        {
          "internalType": "address",
          "name": "",
          "type": "address"
        }
      ],
      "stateMutability": "view",
      "type": "function"
    },
    {
      "inputs": [
        {
          "internalType": "uint256",
          "name": "",
          "type": "uint256"
        }
      ],
      "name": "profitSharingAddresses",
      "outputs": [
        {
          "internalType": "address",
          "name": "",
          "type": "address"
        }
      ],
      "stateMutability": "view",
      "type": "function"
    },
    {
      "inputs": [
        {
          "internalType": "uint256",
          "name": "",
          "type": "uint256"
        }
      ],
      "name": "profitSharingPercentages",
      "outputs": [
        {
          "internalType": "uint256",
          "name": "",
          "type": "uint256"
        }
      ],
      "stateMutability": "view",
      "type": "function"
    },
    {
      "inputs": [
        {
          "internalType": "uint256",
          "name": "tokenId",
          "type": "uint256"
        },
        {
          "internalType": "address",
          "name": "from",
          "type": "address"
        },
        {
          "internalType": "uint256",
          "name": "price",
          "type": "uint256"
        }
      ],
      "name": "purchase",
      "outputs": [],
      "stateMutability": "payable",
      "type": "function"
    },
    {
      "inputs": [],
      "name": "renounceOwnership",
      "outputs": [],
      "stateMutability": "nonpayable",
      "type": "function"
    },
    {
      "inputs": [
        {
          "internalType": "uint256",
          "name": "tokenId",
          "type": "uint256"
        }
      ],
      "name": "rentNFT",
      "outputs": [],
      "stateMutability": "payable",
      "type": "function"
    },
    {
      "inputs": [
        {
          "internalType": "uint256",
          "name": "",
          "type": "uint256"
        }
      ],
      "name": "rentals",
      "outputs": [
        {
          "internalType": "address",
          "name": "renter",
          "type": "address"
        },
        {
          "internalType": "uint256",
          "name": "rentPrice",
          "type": "uint256"
        },
        {
          "internalType": "uint256",
          "name": "startTime",
          "type": "uint256"
        },
        {
          "internalType": "uint256",
          "name": "duration",
          "type": "uint256"
        },
        {
          "internalType": "bool",
          "name": "active",
          "type": "bool"
        }
      ],
      "stateMutability": "view",
      "type": "function"
    },
    {
      "inputs": [],
      "name": "royaltyPercentage",
      "outputs": [
        {
          "internalType": "uint256",
          "name": "",
          "type": "uint256"
        }
      ],
      "stateMutability": "view",
      "type": "function"
    },
    {
      "inputs": [
        {
          "internalType": "address",
          "name": "from",
          "type": "address"
        },
        {
          "internalType": "address",
          "name": "to",
          "type": "address"
        },
        {
          "internalType": "uint256",
          "name": "tokenId",
          "type": "uint256"
        }
      ],
      "name": "safeTransferFrom",
      "outputs": [],
      "stateMutability": "nonpayable",
      "type": "function"
    },
    {
      "inputs": [
        {
          "internalType": "address",
          "name": "from",
          "type": "address"
        },
        {
          "internalType": "address",
          "name": "to",
          "type": "address"
        },
        {
          "internalType": "uint256",
          "name": "tokenId",
          "type": "uint256"
        },
        {
          "internalType": "bytes",
          "name": "data",
          "type": "bytes"
        }
      ],
      "name": "safeTransferFrom",
      "outputs": [],
      "stateMutability": "nonpayable",
      "type": "function"
    },
    {
      "inputs": [
        {
          "internalType": "address",
          "name": "operator",
          "type": "address"
        },
        {
          "internalType": "bool",
          "name": "approved",
          "type": "bool"
        }
      ],
      "name": "setApprovalForAll",
      "outputs": [],
      "stateMutability": "nonpayable",
      "type": "function"
    },
    {
      "inputs": [
        {
          "internalType": "uint256",
          "name": "newPeriod",
          "type": "uint256"
        }
      ],
      "name": "setLoyaltyPeriod",
      "outputs": [],
      "stateMutability": "nonpayable",
      "type": "function"
    },
    {
      "inputs": [
        {
          "internalType": "uint256",
          "name": "price",
          "type": "uint256"
        }
      ],
      "name": "setMysteryBoxPrice",
      "outputs": [],
      "stateMutability": "nonpayable",
      "type": "function"
    },
    {
      "inputs": [
        {
          "internalType": "address[]",
          "name": "addresses",
          "type": "address[]"
        },
        {
          "internalType": "uint256[]",
          "name": "percentages",
          "type": "uint256[]"
        }
      ],
      "name": "setProfitSharing",
      "outputs": [],
      "stateMutability": "nonpayable",
      "type": "function"
    },
    {
      "inputs": [
        {
          "internalType": "uint256",
          "name": "percentage",
          "type": "uint256"
        }
      ],
      "name": "setRoyaltyPercentage",
      "outputs": [],
      "stateMutability": "nonpayable",
      "type": "function"
    },
    {
      "inputs": [
        {
          "internalType": "uint256",
          "name": "tokenId",
          "type": "uint256"
        },
        {
          "internalType": "enum YourCollectible.Rarity",
          "name": "rarity",
          "type": "uint8"
        }
      ],
      "name": "setTokenRarity",
      "outputs": [],
      "stateMutability": "nonpayable",
      "type": "function"
    },
    {
      "inputs": [
        {
          "internalType": "uint256",
          "name": "tokenId",
          "type": "uint256"
        },
        {
          "internalType": "uint256",
          "name": "minBid",
          "type": "uint256"
        },
        {
          "internalType": "uint256",
          "name": "auctionDuration",
          "type": "uint256"
        }
      ],
      "name": "startAuction",
      "outputs": [],
      "stateMutability": "nonpayable",
      "type": "function"
    },
    {
      "inputs": [
        {
          "internalType": "bytes4",
          "name": "interfaceId",
          "type": "bytes4"
        }
      ],
      "name": "supportsInterface",
      "outputs": [
        {
          "internalType": "bool",
          "name": "",
          "type": "bool"
        }
      ],
      "stateMutability": "view",
      "type": "function"
    },
    {
      "inputs": [],
      "name": "symbol",
      "outputs": [
        {
          "internalType": "string",
          "name": "",
          "type": "string"
        }
      ],
      "stateMutability": "view",
      "type": "function"
    },
    {
      "inputs": [
        {
          "internalType": "uint256",
          "name": "index",
          "type": "uint256"
        }
      ],
      "name": "tokenByIndex",
      "outputs": [
        {
          "internalType": "uint256",
          "name": "",
          "type": "uint256"
        }
      ],
      "stateMutability": "view",
      "type": "function"
    },
    {
      "inputs": [],
      "name": "tokenIdCounter",
      "outputs": [
        {
          "internalType": "uint256",
          "name": "_value",
          "type": "uint256"
        }
      ],
      "stateMutability": "view",
      "type": "function"
    },
    {
      "inputs": [
        {
          "internalType": "address",
          "name": "owner",
          "type": "address"
        },
        {
          "internalType": "uint256",
          "name": "index",
          "type": "uint256"
        }
      ],
      "name": "tokenOfOwnerByIndex",
      "outputs": [
        {
          "internalType": "uint256",
          "name": "",
          "type": "uint256"
        }
      ],
      "stateMutability": "view",
      "type": "function"
    },
    {
      "inputs": [
        {
          "internalType": "uint256",
          "name": "",
          "type": "uint256"
        }
      ],
      "name": "tokenPrices",
      "outputs": [
        {
          "internalType": "uint256",
          "name": "",
          "type": "uint256"
        }
      ],
      "stateMutability": "view",
      "type": "function"
    },
    {
      "inputs": [
        {
          "internalType": "uint256",
          "name": "",
          "type": "uint256"
        }
      ],
      "name": "tokenRarities",
      "outputs": [
        {
          "internalType": "enum YourCollectible.Rarity",
          "name": "",
          "type": "uint8"
        }
      ],
      "stateMutability": "view",
      "type": "function"
    },
    {
      "inputs": [
        {
          "internalType": "uint256",
          "name": "",
          "type": "uint256"
        },
        {
          "internalType": "uint256",
          "name": "",
          "type": "uint256"
        }
      ],
      "name": "tokenTransactionHistory",
      "outputs": [
        {
          "internalType": "address",
          "name": "seller",
          "type": "address"
        },
        {
          "internalType": "address",
          "name": "buyer",
          "type": "address"
        },
        {
          "internalType": "uint256",
          "name": "price",
          "type": "uint256"
        },
        {
          "internalType": "uint256",
          "name": "timestamp",
          "type": "uint256"
        }
      ],
      "stateMutability": "view",
      "type": "function"
    },
    {
      "inputs": [
        {
          "internalType": "uint256",
          "name": "tokenId",
          "type": "uint256"
        }
      ],
      "name": "tokenURI",
      "outputs": [
        {
          "internalType": "string",
          "name": "",
          "type": "string"
        }
      ],
      "stateMutability": "view",
      "type": "function"
    },
    {
      "inputs": [],
      "name": "totalSupply",
      "outputs": [
        {
          "internalType": "uint256",
          "name": "",
          "type": "uint256"
        }
      ],
      "stateMutability": "view",
      "type": "function"
    },
    {
      "inputs": [
        {
          "internalType": "address",
          "name": "from",
          "type": "address"
        },
        {
          "internalType": "address",
          "name": "to",
          "type": "address"
        },
        {
          "internalType": "uint256",
          "name": "tokenId",
          "type": "uint256"
        }
      ],
      "name": "transferFrom",
      "outputs": [],
      "stateMutability": "nonpayable",
      "type": "function"
    },
    {
      "inputs": [
        {
          "internalType": "address",
          "name": "newOwner",
          "type": "address"
        }
      ],
      "name": "transferOwnership",
      "outputs": [],
      "stateMutability": "nonpayable",
      "type": "function"
    },
    {
      "inputs": [
        {
          "internalType": "uint256",
          "name": "tokenId",
          "type": "uint256"
        },
        {
          "internalType": "address",
          "name": "to",
          "type": "address"
        },
        {
          "internalType": "uint256",
          "name": "shares",
          "type": "uint256"
        }
      ],
      "name": "transferShares",
      "outputs": [],
      "stateMutability": "nonpayable",
      "type": "function"
    }
  ],
  "transactionHash": "0xdc68a74d664fb7952d7bcd762a481598ae467f78fb7adbe3819ef69c97228146",
  "args": [],
  "numDeployments": 1,
  "solcInputHash": "82c87454515442e8da36022a6e07a5d9",
  "bytecode": "0x6080604052600560115567016345785d8a000060135562278d006017553480156200002957600080fd5b506040518060400160405280600f81526020016e596f7572436f6c6c65637469626c6560881b81525060405180604001604052806003815260200162262ca560e91b81525081600090816200007f9190620001ac565b5060016200008e8282620001ac565b505050620000ab620000a5620000b160201b60201c565b620000b5565b62000278565b3390565b600b80546001600160a01b038381166001600160a01b0319831681179093556040519116919082907f8be0079c531659141344cd1fd0a4f28419497f9722a3daafe3b4186f6b6457e090600090a35050565b634e487b7160e01b600052604160045260246000fd5b600181811c908216806200013257607f821691505b6020821081036200015357634e487b7160e01b600052602260045260246000fd5b50919050565b601f821115620001a757600081815260208120601f850160051c81016020861015620001825750805b601f850160051c820191505b81811015620001a3578281556001016200018e565b5050505b505050565b81516001600160401b03811115620001c857620001c862000107565b620001e081620001d984546200011d565b8462000159565b602080601f831160018114620002185760008415620001ff5750858301515b600019600386901b1c1916600185901b178555620001a3565b600085815260208120601f198616915b82811015620002495788860151825594840194600190910190840162000228565b5085821015620002685787850151600019600388901b60f8161c191681555b5050505050600190811b01905550565b614df280620002886000396000f3fe6080604052600436106103ce5760003560e01c806377ef8d7f116101fd578063b88d4fde11610118578063e5afe3e6116100ab578063ed0e31de1161007a578063ed0e31de14610cc0578063f20370c114610ced578063f2fde38b14610d38578063f45263dd14610d58578063f746a5ea14610d6e57600080fd5b8063e5afe3e614610c17578063e8e9cd5b14610c44578063e985e9c514610c64578063ec11baac14610cad57600080fd5b8063cabecf8c116100e7578063cabecf8c14610b97578063cc55ae6914610bb7578063cda4beef14610be4578063d91483f114610c0457600080fd5b8063b88d4fde14610b17578063b9a2de3a14610b37578063bcd7746114610b57578063c87b56dd14610b7757600080fd5b80638f4b7c3e1161019057806398bdf6f51161015f57806398bdf6f514610a35578063a22cb46514610a4c578063ad64d06814610a6c578063af94a1d114610a8c57600080fd5b80638f4b7c3e146109b357806391e078bb146109e057806395d89b4114610a0057806397491d6f14610a1557600080fd5b806384b9a6e6116101cc57806384b9a6e61461093257806385fff858146109525780638a71bb2d1461097f5780638da5cb5b1461099557600080fd5b806377ef8d7f146108bf57806378084c9d146108df5780637894505e146108ff5780637a183e841461091f57600080fd5b806343012ec2116102ed57806361ba27da116102805780636e8400501161024f5780636e8400501461081657806370a0823114610843578063715018a61461086357806375c0b9fe1461087857600080fd5b806361ba27da146107ad57806361cefff4146107cd5780636352211e146107e3578063650e5d6d1461080357600080fd5b806351ed8288116102bc57806351ed82881461069c578063555ec78b146106af578063571a26a0146106df57806360dfd2b21461078d57600080fd5b806343012ec21461060c578063447988111461062c578063457eff561461064c5780634f6ccce71461067c57600080fd5b80631744cce81161036557806323b872dd1161033457806323b872dd1461058c5780632890e0d7146105ac5780632f745c59146105cc57806342842e0e146105ec57600080fd5b80631744cce81461052f57806318160ddd1461054f5780631c7e9ed0146105645780631e33195a1461056c57600080fd5b80630aea2394116103a15780630aea239414610484578063110bcd45146104c1578063141a468c146104ef57806314364f1d1461051c57600080fd5b806301ffc9a7146103d357806306fdde0314610408578063081812fc1461042a578063095ea7b314610462575b600080fd5b3480156103df57600080fd5b506103f36103ee36600461421f565b610d8e565b60405190151581526020015b60405180910390f35b34801561041457600080fd5b5061041d610d9f565b6040516103ff919061428c565b34801561043657600080fd5b5061044a61044536600461429f565b610e31565b6040516001600160a01b0390911681526020016103ff565b34801561046e57600080fd5b5061048261047d3660046142d4565b610e58565b005b34801561049057600080fd5b506104b461049f36600461429f565b601a6020526000908152604090205460ff1681565b6040516103ff9190614314565b3480156104cd57600080fd5b506104e16104dc3660046143f1565b610f72565b6040519081526020016103ff565b3480156104fb57600080fd5b506104e161050a36600461429f565b600f6020526000908152604090205481565b61048261052a36600461429f565b610faa565b34801561053b57600080fd5b5061048261054a36600461443e565b6110be565b34801561055b57600080fd5b506008546104e1565b6104e16111f7565b34801561057857600080fd5b5061048261058736600461429f565b611380565b34801561059857600080fd5b506104826105a736600461446a565b6113bd565b3480156105b857600080fd5b506104826105c736600461429f565b6113ee565b3480156105d857600080fd5b506104e16105e73660046142d4565b61145a565b3480156105f857600080fd5b5061048261060736600461446a565b6114f0565b34801561061857600080fd5b5061048261062736600461453b565b61150b565b34801561063857600080fd5b506104e161064736600461429f565b611555565b34801561065857600080fd5b506103f361066736600461429f565b60166020526000908152604090205460ff1681565b34801561068857600080fd5b506104e161069736600461429f565b611576565b6104826106aa36600461429f565b611609565b3480156106bb57600080fd5b506104b46106ca36600461429f565b6000908152601a602052604090205460ff1690565b3480156106eb57600080fd5b506107466106fa36600461429f565b601b6020526000908152604090208054600182015460028301546003840154600485015460058601546006909601546001600160a01b0395861696949593949293909116919060ff1687565b604080516001600160a01b03988916815260208101979097528601949094526060850192909252909316608083015260a082019290925290151560c082015260e0016103ff565b34801561079957600080fd5b506104826107a836600461429f565b61186f565b3480156107b957600080fd5b506104826107c836600461429f565b6119d0565b3480156107d957600080fd5b506104e160135481565b3480156107ef57600080fd5b5061044a6107fe36600461429f565b6119dd565b610482610811366004614594565b611a3d565b34801561082257600080fd5b506104e161083136600461429f565b601d6020526000908152604090205481565b34801561084f57600080fd5b506104e161085e3660046145b9565b611b84565b34801561086f57600080fd5b50610482611c0a565b34801561088457600080fd5b506104e16108933660046145d4565b6000828152601d602090815260408083206001600160a01b038516845260010190915290205492915050565b3480156108cb57600080fd5b506104826108da366004614600565b611c1e565b3480156108eb57600080fd5b506104826108fa36600461429f565b611cfa565b34801561090b57600080fd5b5061048261091a366004614622565b611d07565b61048261092d36600461429f565b611d43565b34801561093e57600080fd5b5061048261094d366004614594565b611ea3565b34801561095e57600080fd5b506104e161096d36600461429f565b6000908152601d602052604090205490565b34801561098b57600080fd5b506104e160115481565b3480156109a157600080fd5b50600b546001600160a01b031661044a565b3480156109bf57600080fd5b506104e16109ce36600461429f565b60156020526000908152604090205481565b3480156109ec57600080fd5b506104826109fb36600461443e565b611f74565b348015610a0c57600080fd5b5061041d612109565b348015610a2157600080fd5b50610482610a3036600461429f565b612118565b348015610a4157600080fd5b50600c546104e19081565b348015610a5857600080fd5b50610482610a67366004614656565b612262565b348015610a7857600080fd5b506104e1610a8736600461429f565b612271565b348015610a9857600080fd5b50610ae3610aa736600461429f565b601c60205260009081526040902080546001820154600283015460038401546004909401546001600160a01b0390931693919290919060ff1685565b604080516001600160a01b03909616865260208601949094529284019190915260608301521515608082015260a0016103ff565b348015610b2357600080fd5b50610482610b32366004614687565b612281565b348015610b4357600080fd5b50610482610b5236600461429f565b6122b9565b348015610b6357600080fd5b5061044a610b7236600461429f565b6123da565b348015610b8357600080fd5b5061041d610b9236600461429f565b612404565b348015610ba357600080fd5b50610482610bb23660046146ee565b61240f565b348015610bc357600080fd5b50610bd7610bd236600461429f565b612532565b6040516103ff91906147a8565b348015610bf057600080fd5b50610482610bff36600461443e565b6125d4565b610482610c12366004614818565b6126a0565b348015610c2357600080fd5b506104e1610c3236600461429f565b600d6020526000908152604090205481565b348015610c5057600080fd5b50610482610c5f36600461429f565b612930565b348015610c7057600080fd5b506103f3610c7f366004614859565b6001600160a01b03918216600090815260056020908152604080832093909416825291909152205460ff1690565b610482610cbb366004614883565b61293d565b348015610ccc57600080fd5b50610ce0610cdb3660046148e6565b612c48565b6040516103ff91906149a9565b348015610cf957600080fd5b50610d0d610d08366004614600565b612cf7565b604080516001600160a01b0395861681529490931660208501529183015260608201526080016103ff565b348015610d4457600080fd5b50610482610d533660046145b9565b612d49565b348015610d6457600080fd5b506104e160175481565b348015610d7a57600080fd5b50610482610d893660046142d4565b612dbf565b6000610d9982612e34565b92915050565b606060008054610dae906149ed565b80601f0160208091040260200160405190810160405280929190818152602001828054610dda906149ed565b8015610e275780601f10610dfc57610100808354040283529160200191610e27565b820191906000526020600020905b815481529060010190602001808311610e0a57829003601f168201915b5050505050905090565b6000610e3c82612e59565b506000908152600460205260409020546001600160a01b031690565b6000610e63826119dd565b9050806001600160a01b0316836001600160a01b031603610ed55760405162461bcd60e51b815260206004820152602160248201527f4552433732313a20617070726f76616c20746f2063757272656e74206f776e656044820152603960f91b60648201526084015b60405180910390fd5b336001600160a01b0382161480610ef15750610ef18133610c7f565b610f635760405162461bcd60e51b815260206004820152603d60248201527f4552433732313a20617070726f76652063616c6c6572206973206e6f7420746f60448201527f6b656e206f776e6572206f7220617070726f76656420666f7220616c6c0000006064820152608401610ecc565b610f6d8383612eb8565b505050565b6000610f82600c80546001019055565b6000610f8d600c5490565b9050610f998482612f26565b610fa38184612f40565b9392505050565b6000818152601c60205260409020600481015460ff166110015760405162461bcd60e51b8152602060048201526012602482015271e8afa54e4654e4b88de58fafe587bae7a79f60701b6044820152606401610ecc565b806001015434146110545760405162461bcd60e51b815260206004820152601860248201527fe694afe4bb98e79a84e7a79fe98791e4b88de6ada3e7a1ae00000000000000006044820152606401610ecc565b80546001600160a01b0319163317815542600282015561107d611076836119dd565b338461300b565b611086826119dd565b6001600160a01b03166108fc349081150290604051600060405180830381858888f19350505050158015610f6d573d6000803e3d6000fd5b336110c8846119dd565b6001600160a01b03161461111e5760405162461bcd60e51b815260206004820152601e60248201527fe58faae69c894e4654e68ba5e69c89e88085e58fafe4bba5e587bae7a79f00006044820152606401610ecc565b6000838152601c602052604090206004015460ff16156111755760405162461bcd60e51b8152602060048201526012602482015271e8afa54e4654e5b7b2e7bb8fe587bae7a79f60701b6044820152606401610ecc565b6040805160a0810182526000808252602080830195865282840182815260608401958652600160808501818152988452601c90925293909120915182546001600160a01b0319166001600160a01b0390911617825593519381019390935551600283015551600382015590516004909101805460ff1916911515919091179055565b6000601354341461124a5760405162461bcd60e51b815260206004820152601860248201527fe694afe4bb98e79a84e4bbb7e6a0bce4b88de6ada3e7a1ae00000000000000006044820152606401610ecc565b60145461128e5760405162461bcd60e51b815260206004820152601260248201527139aca879a7227963ebf9e52a39e6a113919560721b6044820152606401610ecc565b60145460408051426020808301919091523360601b6001600160601b0319168284015282516034818403018152605490920190925280519101206000916112d491614a3d565b90506000601482815481106112eb576112eb614a51565b906000526020600020015490506014600160148054905061130c9190614a7d565b8154811061131c5761131c614a51565b90600052602060002001546014838154811061133a5761133a614a51565b600091825260209091200155601480548061135757611357614a90565b60019003818190600052602060002001600090559055610d99611379826119dd565b338361300b565b61138861303d565b601480546001810182556000919091527fce6d7b5282bd9a3661ae061feed1dbda4e52ab073b1f9285be6e155d9c38d4ec0155565b6113c73382613097565b6113e35760405162461bcd60e51b8152600401610ecc90614aa6565b610f6d83838361300b565b336113f8826119dd565b6001600160a01b03161461144e5760405162461bcd60e51b815260206004820152601e60248201527f4f6e6c79204e465420686f6c646572732063616e206275726e204e46547300006044820152606401610ecc565b61145781613116565b50565b600061146583611b84565b82106114c75760405162461bcd60e51b815260206004820152602b60248201527f455243373231456e756d657261626c653a206f776e657220696e646578206f7560448201526a74206f6620626f756e647360a81b6064820152608401610ecc565b506001600160a01b03919091166000908152600660209081526040808320938352929052205490565b610f6d83838360405180602001604052806000815250612281565b61151361303d565b60005b8251811015610f6d5761154283828151811061153457611534614a51565b602002602001015183610f72565b508061154d81614af3565b915050611516565b6019818154811061156557600080fd5b600091825260209091200154905081565b600061158160085490565b82106115e45760405162461bcd60e51b815260206004820152602c60248201527f455243373231456e756d657261626c653a20676c6f62616c20696e646578206f60448201526b7574206f6620626f756e647360a01b6064820152608401610ecc565b600882815481106115f7576115f7614a51565b90600052602060002001549050919050565b6000818152600d6020526040902054806116655760405162461bcd60e51b815260206004820152601b60248201527fe8afa5e78988e69d83e688964e4654e8bf98e69caae587bae594ae00000000006044820152606401610ecc565b8034146116cd5760405162461bcd60e51b815260206004820152603060248201527fe58f91e98081e4ba86e99499e8afafe79a84e4bbb7e6a0bce68896e694afe4bb60448201526f4c74c3c8f4d14ef25c46f356d1f3d0d760811b6064820152608401610ecc565b60006116d8836119dd565b6000848152601060205260408120546011549293506001600160a01b0316916064906117049034614b0c565b61170e9190614b23565b9050600061171c8234614a7d565b905061172984338861300b565b6040516001600160a01b0384169083156108fc029084906000818181858888f1935050505015801561175f573d6000803e3d6000fd5b506040516001600160a01b0385169082156108fc029083906000818181858888f19350505050158015611796573d6000803e3d6000fd5b506117a03461311f565b600086815260126020908152604080832081516080810183526001600160a01b03808a1680835233838701908152348487018181524260608701908152875460018181018a55988c52998b2096516004909a0290960180549986166001600160a01b03199a8b16178155925196830180549790951696909816959095179092559451600282015590516003909101559051919281156108fc029290818181858888f19350505050158015611858573d6000803e3d6000fd5b50505060009384525050600d602052506040812055565b33611879826119dd565b6001600160a01b0316146118db5760405162461bcd60e51b8152602060048201526024808201527fe58faae69c894e4654e68980e69c89e88085e58fafe4bba5e9a286e58f96e5a560448201526396e58ab160e01b6064820152608401610ecc565b60008181526016602052604090205460ff161561193a5760405162461bcd60e51b815260206004820152601b60248201527fe5bfa0e8af9ae5baa6e5a596e58ab1e5b7b2e7bb8fe9a286e58f9600000000006044820152606401610ecc565b6017546000828152601560205260409020546119569190614b37565b4210156119b55760405162461bcd60e51b815260206004820152602760248201527fe68c81e69c89e697b6e997b4e4b88de8b6b3efbc8ce4b88de883bde9a286e58f60448201526696e5a596e58ab160c81b6064820152608401610ecc565b6000908152601660205260409020805460ff19166001179055565b6119d861303d565b601155565b6000818152600260205260408120546001600160a01b031680610d995760405162461bcd60e51b8152602060048201526018602482015277115490cdcc8c4e881a5b9d985b1a59081d1bdad95b88125160421b6044820152606401610ecc565b6000838152600260205260409020546001600160a01b0316611a985760405162461bcd60e51b8152602060048201526014602482015273151bdad95b88191bd95cc81b9bdd08195e1a5cdd60621b6044820152606401610ecc565b611aa1836119dd565b6001600160a01b0316826001600160a01b031614611b015760405162461bcd60e51b815260206004820152601d60248201527f46726f6d2061646472657373206973206e6f7420746865206f776e65720000006044820152606401610ecc565b803414611b425760405162461bcd60e51b815260206004820152600f60248201526e496e636f727265637420707269636560881b6044820152606401610ecc565b6040516001600160a01b0383169082156108fc029083906000818181858888f19350505050158015611b78573d6000803e3d6000fd5b50610f6d82338561300b565b60006001600160a01b038216611bee5760405162461bcd60e51b815260206004820152602960248201527f4552433732313a2061646472657373207a65726f206973206e6f7420612076616044820152683634b21037bbb732b960b91b6064820152608401610ecc565b506001600160a01b031660009081526003602052604090205490565b611c1261303d565b611c1c60006131cd565b565b33611c28836119dd565b6001600160a01b031614611c8e5760405162461bcd60e51b815260206004820152602760248201527fe58faae69c894e4654e68ba5e69c89e88085e58fafe4bba5e8bf9be8a18ce7a26044820152664773c4c3f2c64b60c91b6064820152608401610ecc565b60008111611cd75760405162461bcd60e51b81526020600482015260166024820152750e4bbbde9a29de695b0e5bf85e9a1bbe5a4a7e4ba8e360541b6044820152606401610ecc565b6000918252601d6020908152604080842083815533855260010190915290912055565b611d0261303d565b601355565b611d0f61303d565b6000828152601a60205260409020805482919060ff19166001836003811115611d3a57611d3a6142fe565b02179055505050565b6000818152601b60205260409020600681015460ff16611d9a5760405162461bcd60e51b8152602060048201526012602482015271e8afa5e68b8de58d96e4b88de6b4bbe8b78360701b6044820152606401610ecc565b80600501544210611ddf5760405162461bcd60e51b815260206004820152600f60248201526ee68b8de58d96e5b7b2e7bb93e69d9f60881b6044820152606401610ecc565b80600301543411611e325760405162461bcd60e51b815260206004820152601e60248201527fe587bae4bbb7e4bd8ee4ba8ee5bd93e5898de69c80e9ab98e587bae4bbb700006044820152606401610ecc565b60048101546001600160a01b031615611e8757600481015460038201546040516001600160a01b039092169181156108fc0291906000818181858888f19350505050158015611e85573d6000803e3d6000fd5b505b34600382015560040180546001600160a01b0319163317905550565b6000838152601d60209081526040808320338452600101909152902054811115611f045760405162461bcd60e51b8152602060048201526012602482015271e68c81e69c89e4bbbde9a29de4b88de8b6b360701b6044820152606401610ecc565b6000838152601d6020908152604080832033845260010190915281208054839290611f30908490614a7d565b90915550506000838152601d602090815260408083206001600160a01b038616845260010190915281208054839290611f6a908490614b37565b9091555050505050565b33611f7e846119dd565b6001600160a01b031614611fe05760405162461bcd60e51b8152602060048201526024808201527fe58faae69c894e4654e68ba5e69c89e88085e58fafe4bba5e58f91e8b5b7e68b60448201526346f2c6cb60e11b6064820152608401610ecc565b6000838152601b602052604090206006015460ff16156120425760405162461bcd60e51b815260206004820152601b60248201527fe8bf99e59cba4e4654e68b8de58d96e5b7b2e8a2abe6bf80e6b4bb00000000006044820152606401610ecc565b6040805160e08101825233815260208101859052908101839052600060608201819052608082015260a081016120788342614b37565b8152600160209182018190526000958652601b8252604095869020835181546001600160a01b03199081166001600160a01b039283161783559385015192820192909255958301516002870155606083015160038701556080830151600487018054909316911617905560a0810151600585015560c001516006909301805460ff1916931515939093179092555050565b606060018054610dae906149ed565b6000818152601c60205260409020600481015460ff1661217a5760405162461bcd60e51b815260206004820152601b60248201527fe8afa54e4654e69caae5a484e4ba8ee587bae7a79fe78ab6e6808100000000006044820152606401610ecc565b8060030154816002015461218e9190614b37565b4210156121d55760405162461bcd60e51b8152602060048201526015602482015274e7a79fe8b581e69c9fe5b09ae69caae7bb93e69d9f60581b6044820152606401610ecc565b80546001600160a01b03166122215760405162461bcd60e51b8152602060048201526012602482015271e8afa54e4654e69caae8a2abe7a79fe8b58160701b6044820152606401610ecc565b805461223f906001600160a01b0316612239846119dd565b8461300b565b80546001600160a01b031916815560006002820155600401805460ff1916905550565b61226d33838361321f565b5050565b6014818154811061156557600080fd5b61228b3383613097565b6122a75760405162461bcd60e51b8152600401610ecc90614aa6565b6122b3848484846132ed565b50505050565b6000818152601b60205260409020600681015460ff1661230d5760405162461bcd60e51b815260206004820152600f60248201526ee68b8de58d96e5b7b2e7bb93e69d9f60881b6044820152606401610ecc565b80600501544210156123565760405162461bcd60e51b8152602060048201526012602482015271e68b8de58d96e5b09ae69caae7bb93e69d9f60701b6044820152606401610ecc565b60068101805460ff1916905560048101546001600160a01b03161561226d57612395612381836119dd565b60048301546001600160a01b03168461300b565b61239e826119dd565b6001600160a01b03166108fc82600301549081150290604051600060405180830381858888f19350505050158015610f6d573d6000803e3d6000fd5b601881815481106123ea57600080fd5b6000918252602090912001546001600160a01b0316905081565b6060610d9982613320565b61241761303d565b80518251146124685760405162461bcd60e51b815260206004820152601e60248201527fe59cb0e59d80e5928ce6af94e4be8be995bfe5baa6e4b88de58cb9e9858d00006044820152606401610ecc565b6000805b82518110156124ae5782818151811061248757612487614a51565b60200260200101518261249a9190614b37565b9150806124a681614af3565b91505061246c565b50606481111561250b5760405162461bcd60e51b815260206004820152602260248201527fe58886e7baa2e6af94e4be8be680bbe5928ce4b88de883bde8b685e8bf873130604482015261302560f01b6064820152608401610ecc565b825161251e90601890602086019061411e565b5081516122b3906019906020850190614183565b606060126000838152602001908152602001600020805480602002602001604051908101604052809291908181526020016000905b828210156125c9576000848152602090819020604080516080810182526004860290920180546001600160a01b039081168452600180830154909116848601526002820154928401929092526003015460608301529083529092019101612567565b505050509050919050565b336125de846119dd565b6001600160a01b03161461263e5760405162461bcd60e51b815260206004820152602160248201527fe58faae69c89e68ba5e69c89e88085e6898de883bde58f91e8b5b7e68b8de58d6044820152604b60f91b6064820152608401610ecc565b6000838152601b602052604090206006015460ff16156120425760405162461bcd60e51b815260206004820152601b60248201527fe8afa5e78988e69d83e5b7b2e7bb8fe59ca8e68b8de58d96e4b8ad00000000006044820152606401610ecc565b6000848152600d602052604090205483146126cd5760405162461bcd60e51b8152600401610ecc90614b4a565b6126d982610258614b37565b4211156127225760405162461bcd60e51b8152602060048201526017602482015276151c985b9cd858dd1a5bdb881a185cc8195e1c1a5c9959604a1b6044820152606401610ecc565b600061272d856119dd565b60408051602081018890529081018690526001600160601b031933606090811b82168184015283901b1660748201526088810185905290915060009060a80160408051601f1981840301815291815281516020928301206000818152600e90935291205490915060ff16156127e45760405162461bcd60e51b815260206004820152601d60248201527f5472616e73616374696f6e20616c72656164792070726f6365737365640000006044820152606401610ecc565b6127ef818484613428565b6128365760405162461bcd60e51b8152602060048201526018602482015277496e76616c69642073656c6c6572207369676e617475726560401b6044820152606401610ecc565b84341461287c5760405162461bcd60e51b8152602060048201526014602482015273125b98dbdc9c9958dd081c1c9a58d9481cd95b9d60621b6044820152606401610ecc565b61288782338861300b565b6040516001600160a01b038316903480156108fc02916000818181858888f193505050501580156128bc573d6000803e3d6000fd5b506000818152600e602052604090819020805460ff19166001179055516001600160a01b03831690339088907fcc67c9df55afb3e8007bb6ac2d0263fcb716278a856040d1c94fe7fba4bac7ee90612920908a904290918252602082015260400190565b60405180910390a4505050505050565b61293861303d565b601755565b6000858152600d6020526040902054841461296a5760405162461bcd60e51b8152600401610ecc90614b4a565b61297683610258614b37565b4211156129bf5760405162461bcd60e51b8152602060048201526017602482015276151c985b9cd858dd1a5bdb881a185cc8195e1c1a5c9959604a1b6044820152606401610ecc565b60006129ca866119dd565b60408051602081018990529081018790526001600160601b031933606090811b82168184015283901b1660748201526088810186905260a8810185905290915060009060c80160408051601f1981840301815291815281516020928301206000818152600e90935291205490915060ff1615612a885760405162461bcd60e51b815260206004820152601d60248201527f5472616e73616374696f6e20616c72656164792070726f6365737365640000006044820152606401610ecc565b6000878152600f60205260409020548414612adc5760405162461bcd60e51b815260206004820152601460248201527309cdedcc6ca40c8decae640dcdee840dac2e8c6d60631b6044820152606401610ecc565b612ae7818484613428565b612b2e5760405162461bcd60e51b8152602060048201526018602482015277496e76616c69642073656c6c6572207369676e617475726560401b6044820152606401610ecc565b853414612b745760405162461bcd60e51b8152602060048201526014602482015273125b98dbdc9c9958dd081c1c9a58d9481cd95b9d60621b6044820152606401610ecc565b612b7f82338961300b565b6040516001600160a01b038316903480156108fc02916000818181858888f19350505050158015612bb4573d6000803e3d6000fd5b506000878152600f60205260408120805491612bcf83614af3565b90915550506000818152600e602052604090819020805460ff19166001179055516001600160a01b03831690339089907fcc67c9df55afb3e8007bb6ac2d0263fcb716278a856040d1c94fe7fba4bac7ee90612c37908b904290918252602082015260400190565b60405180910390a450505050505050565b6060600082516001600160401b03811115612c6557612c6561433c565b604051908082528060200260200182016040528015612c8e578160200160208202803683370190505b50905060005b8351811015612cef57612cc085858381518110612cb357612cb3614a51565b6020026020010151610f72565b828281518110612cd257612cd2614a51565b602090810291909101015280612ce781614af3565b915050612c94565b509392505050565b60126020528160005260406000208181548110612d1357600080fd5b600091825260209091206004909102018054600182015460028301546003909301546001600160a01b0392831695509116925084565b612d5161303d565b6001600160a01b038116612db65760405162461bcd60e51b815260206004820152602660248201527f4f776e61626c653a206e6577206f776e657220697320746865207a65726f206160448201526564647265737360d01b6064820152608401610ecc565b611457816131cd565b33612dc9826119dd565b6001600160a01b031614612e295760405162461bcd60e51b815260206004820152602160248201527fe58faae69c894e4654e68c81e69c89e88085e58fafe4bba5e8bdace5a29e4e466044820152601560fa1b6064820152608401610ecc565b61226d33838361300b565b60006001600160e01b03198216632483248360e11b1480610d995750610d998261346c565b6000818152600260205260409020546001600160a01b03166114575760405162461bcd60e51b8152602060048201526018602482015277115490cdcc8c4e881a5b9d985b1a59081d1bdad95b88125160421b6044820152606401610ecc565b600081815260046020526040902080546001600160a01b0319166001600160a01b0384169081179091558190612eed826119dd565b6001600160a01b03167f8c5be1e5ebec7d5bd14f71427d1e84f3dd0314c0f7b2291e5b200ac8c7c3b92560405160405180910390a45050565b61226d828260405180602001604052806000815250613491565b6000828152600260205260409020546001600160a01b0316612fbb5760405162461bcd60e51b815260206004820152602e60248201527f45524337323155524953746f726167653a2055524920736574206f66206e6f6e60448201526d32bc34b9ba32b73a103a37b5b2b760911b6064820152608401610ecc565b6000828152600a60205260409020612fd38282614bdd565b506040518281527ff8e1a15aba9398e019f0b49df1a4fde98ee17ae345cb5f6b5e2c27f5033e8ce79060200160405180910390a15050565b6130168383836134c4565b600090815260156020908152604080832042905560169091529020805460ff191690555050565b600b546001600160a01b03163314611c1c5760405162461bcd60e51b815260206004820181905260248201527f4f776e61626c653a2063616c6c6572206973206e6f7420746865206f776e65726044820152606401610ecc565b6000806130a3836119dd565b9050806001600160a01b0316846001600160a01b031614806130ea57506001600160a01b0380821660009081526005602090815260408083209388168352929052205460ff165b8061310e5750836001600160a01b031661310384610e31565b6001600160a01b0316145b949350505050565b61145781613635565b60005b60185481101561226d57600060646019838154811061314357613143614a51565b9060005260206000200154846131599190614b0c565b6131639190614b23565b90506018828154811061317857613178614a51565b60009182526020822001546040516001600160a01b039091169183156108fc02918491818181858888f193505050501580156131b8573d6000803e3d6000fd5b505080806131c590614af3565b915050613122565b600b80546001600160a01b038381166001600160a01b0319831681179093556040519116919082907f8be0079c531659141344cd1fd0a4f28419497f9722a3daafe3b4186f6b6457e090600090a35050565b816001600160a01b0316836001600160a01b0316036132805760405162461bcd60e51b815260206004820152601960248201527f4552433732313a20617070726f766520746f2063616c6c6572000000000000006044820152606401610ecc565b6001600160a01b03838116600081815260056020908152604080832094871680845294825291829020805460ff191686151590811790915591519182527f17307eab39ab6107e8899845ad3d59bd9653f200f220920489ca2b5937696c31910160405180910390a3505050565b6132f884848461300b565b61330484848484613675565b6122b35760405162461bcd60e51b8152600401610ecc90614c9c565b606061332b82612e59565b6000828152600a602052604081208054613344906149ed565b80601f0160208091040260200160405190810160405280929190818152602001828054613370906149ed565b80156133bd5780601f10613392576101008083540402835291602001916133bd565b820191906000526020600020905b8154815290600101906020018083116133a057829003601f168201915b5050505050905060006133db60408051602081019091526000815290565b905080516000036133ed575092915050565b81511561341f578082604051602001613407929190614cee565b60405160208183030381529060405292505050919050565b61310e84613776565b7f19457468657265756d205369676e6564204d6573736167653a0a3332000000006000908152601c849052603c81206001600160a01b0383169061310390856137e9565b60006001600160e01b0319821663780e9d6360e01b1480610d995750610d9982613805565b61349b8383613855565b6134a86000848484613675565b610f6d5760405162461bcd60e51b8152600401610ecc90614c9c565b826001600160a01b03166134d7826119dd565b6001600160a01b0316146134fd5760405162461bcd60e51b8152600401610ecc90614d1d565b6001600160a01b03821661355f5760405162461bcd60e51b8152602060048201526024808201527f4552433732313a207472616e7366657220746f20746865207a65726f206164646044820152637265737360e01b6064820152608401610ecc565b61356c83838360016139ee565b826001600160a01b031661357f826119dd565b6001600160a01b0316146135a55760405162461bcd60e51b8152600401610ecc90614d1d565b600081815260046020908152604080832080546001600160a01b03199081169091556001600160a01b0387811680865260038552838620805460001901905590871680865283862080546001019055868652600290945282852080549092168417909155905184937fddf252ad1be2c89b69c2b068fc378daa952ba7f163c4a11628f55a4df523b3ef91a4505050565b61363e816139fa565b6000818152600a602052604090208054613657906149ed565b159050611457576000818152600a60205260408120611457916141be565b60006001600160a01b0384163b1561376b57604051630a85bd0160e11b81526001600160a01b0385169063150b7a02906136b9903390899088908890600401614d62565b6020604051808303816000875af19250505080156136f4575060408051601f3d908101601f191682019092526136f191810190614d9f565b60015b613751573d808015613722576040519150601f19603f3d011682016040523d82523d6000602084013e613727565b606091505b5080516000036137495760405162461bcd60e51b8152600401610ecc90614c9c565b805181602001fd5b6001600160e01b031916630a85bd0160e11b14905061310e565b506001949350505050565b606061378182612e59565b600061379860408051602081019091526000815290565b905060008151116137b85760405180602001604052806000815250610fa3565b806137c284613a9d565b6040516020016137d3929190614cee565b6040516020818303038152906040529392505050565b60008060006137f88585613b2f565b91509150612cef81613b74565b60006001600160e01b031982166380ac58cd60e01b148061383657506001600160e01b03198216635b5e139f60e01b145b80610d9957506301ffc9a760e01b6001600160e01b0319831614610d99565b6001600160a01b0382166138ab5760405162461bcd60e51b815260206004820181905260248201527f4552433732313a206d696e7420746f20746865207a65726f20616464726573736044820152606401610ecc565b6000818152600260205260409020546001600160a01b0316156139105760405162461bcd60e51b815260206004820152601c60248201527f4552433732313a20746f6b656e20616c7265616479206d696e746564000000006044820152606401610ecc565b61391e6000838360016139ee565b6000818152600260205260409020546001600160a01b0316156139835760405162461bcd60e51b815260206004820152601c60248201527f4552433732313a20746f6b656e20616c7265616479206d696e746564000000006044820152606401610ecc565b6001600160a01b038216600081815260036020908152604080832080546001019055848352600290915280822080546001600160a01b0319168417905551839291907fddf252ad1be2c89b69c2b068fc378daa952ba7f163c4a11628f55a4df523b3ef908290a45050565b6122b384848484613cbe565b6000613a05826119dd565b9050613a158160008460016139ee565b613a1e826119dd565b600083815260046020908152604080832080546001600160a01b03199081169091556001600160a01b0385168085526003845282852080546000190190558785526002909352818420805490911690555192935084927fddf252ad1be2c89b69c2b068fc378daa952ba7f163c4a11628f55a4df523b3ef908390a45050565b60606000613aaa83613df2565b60010190506000816001600160401b03811115613ac957613ac961433c565b6040519080825280601f01601f191660200182016040528015613af3576020820181803683370190505b5090508181016020015b600019016f181899199a1a9b1b9c1cb0b131b232b360811b600a86061a8153600a8504945084613afd57509392505050565b6000808251604103613b655760208301516040840151606085015160001a613b5987828585613eca565b94509450505050613b6d565b506000905060025b9250929050565b6000816004811115613b8857613b886142fe565b03613b905750565b6001816004811115613ba457613ba46142fe565b03613bf15760405162461bcd60e51b815260206004820152601860248201527f45434453413a20696e76616c6964207369676e617475726500000000000000006044820152606401610ecc565b6002816004811115613c0557613c056142fe565b03613c525760405162461bcd60e51b815260206004820152601f60248201527f45434453413a20696e76616c6964207369676e6174757265206c656e677468006044820152606401610ecc565b6003816004811115613c6657613c666142fe565b036114575760405162461bcd60e51b815260206004820152602260248201527f45434453413a20696e76616c6964207369676e6174757265202773272076616c604482015261756560f01b6064820152608401610ecc565b6001811115613d2d5760405162461bcd60e51b815260206004820152603560248201527f455243373231456e756d657261626c653a20636f6e7365637574697665207472604482015274185b9cd9995c9cc81b9bdd081cdd5c1c1bdc9d1959605a1b6064820152608401610ecc565b816001600160a01b038516613d8957613d8481600880546000838152600960205260408120829055600182018355919091527ff3f7a9fe364faab93b216da50a3214154f22a0a2b415b23a84c8169e8b636ee30155565b613dac565b836001600160a01b0316856001600160a01b031614613dac57613dac8582613f8e565b6001600160a01b038416613dc857613dc38161402b565b613deb565b846001600160a01b0316846001600160a01b031614613deb57613deb84826140da565b5050505050565b60008072184f03e93ff9f4daa797ed6e38ed64bf6a1f0160401b8310613e315772184f03e93ff9f4daa797ed6e38ed64bf6a1f0160401b830492506040015b6d04ee2d6d415b85acef81000000008310613e5d576d04ee2d6d415b85acef8100000000830492506020015b662386f26fc100008310613e7b57662386f26fc10000830492506010015b6305f5e1008310613e93576305f5e100830492506008015b6127108310613ea757612710830492506004015b60648310613eb9576064830492506002015b600a8310610d995760010192915050565b6000807f7fffffffffffffffffffffffffffffff5d576e7357a4501ddfe92f46681b20a0831115613f015750600090506003613f85565b6040805160008082526020820180845289905260ff881692820192909252606081018690526080810185905260019060a0016020604051602081039080840390855afa158015613f55573d6000803e3d6000fd5b5050604051601f1901519150506001600160a01b038116613f7e57600060019250925050613f85565b9150600090505b94509492505050565b60006001613f9b84611b84565b613fa59190614a7d565b600083815260076020526040902054909150808214613ff8576001600160a01b03841660009081526006602090815260408083208584528252808320548484528184208190558352600790915290208190555b5060009182526007602090815260408084208490556001600160a01b039094168352600681528383209183525290812055565b60085460009061403d90600190614a7d565b6000838152600960205260408120546008805493945090928490811061406557614065614a51565b90600052602060002001549050806008838154811061408657614086614a51565b60009182526020808320909101929092558281526009909152604080822084905585825281205560088054806140be576140be614a90565b6001900381819060005260206000200160009055905550505050565b60006140e583611b84565b6001600160a01b039093166000908152600660209081526040808320868452825280832085905593825260079052919091209190915550565b828054828255906000526020600020908101928215614173579160200282015b8281111561417357825182546001600160a01b0319166001600160a01b0390911617825560209092019160019091019061413e565b5061417f9291506141f4565b5090565b828054828255906000526020600020908101928215614173579160200282015b828111156141735782518255916020019190600101906141a3565b5080546141ca906149ed565b6000825580601f106141da575050565b601f01602090049060005260206000209081019061145791905b5b8082111561417f57600081556001016141f5565b6001600160e01b03198116811461145757600080fd5b60006020828403121561423157600080fd5b8135610fa381614209565b60005b8381101561425757818101518382015260200161423f565b50506000910152565b6000815180845261427881602086016020860161423c565b601f01601f19169290920160200192915050565b602081526000610fa36020830184614260565b6000602082840312156142b157600080fd5b5035919050565b80356001600160a01b03811681146142cf57600080fd5b919050565b600080604083850312156142e757600080fd5b6142f0836142b8565b946020939093013593505050565b634e487b7160e01b600052602160045260246000fd5b602081016004831061433657634e487b7160e01b600052602160045260246000fd5b91905290565b634e487b7160e01b600052604160045260246000fd5b604051601f8201601f191681016001600160401b038111828210171561437a5761437a61433c565b604052919050565b600082601f83011261439357600080fd5b81356001600160401b038111156143ac576143ac61433c565b6143bf601f8201601f1916602001614352565b8181528460208386010111156143d457600080fd5b816020850160208301376000918101602001919091529392505050565b6000806040838503121561440457600080fd5b61440d836142b8565b915060208301356001600160401b0381111561442857600080fd5b61443485828601614382565b9150509250929050565b60008060006060848603121561445357600080fd5b505081359360208301359350604090920135919050565b60008060006060848603121561447f57600080fd5b614488846142b8565b9250614496602085016142b8565b9150604084013590509250925092565b60006001600160401b038211156144bf576144bf61433c565b5060051b60200190565b600082601f8301126144da57600080fd5b813560206144ef6144ea836144a6565b614352565b82815260059290921b8401810191818101908684111561450e57600080fd5b8286015b8481101561453057614523816142b8565b8352918301918301614512565b509695505050505050565b6000806040838503121561454e57600080fd5b82356001600160401b038082111561456557600080fd5b614571868387016144c9565b9350602085013591508082111561458757600080fd5b5061443485828601614382565b6000806000606084860312156145a957600080fd5b83359250614496602085016142b8565b6000602082840312156145cb57600080fd5b610fa3826142b8565b600080604083850312156145e757600080fd5b823591506145f7602084016142b8565b90509250929050565b6000806040838503121561461357600080fd5b50508035926020909101359150565b6000806040838503121561463557600080fd5b8235915060208301356004811061464b57600080fd5b809150509250929050565b6000806040838503121561466957600080fd5b614672836142b8565b91506020830135801515811461464b57600080fd5b6000806000806080858703121561469d57600080fd5b6146a6856142b8565b93506146b4602086016142b8565b92506040850135915060608501356001600160401b038111156146d657600080fd5b6146e287828801614382565b91505092959194509250565b6000806040838503121561470157600080fd5b82356001600160401b038082111561471857600080fd5b614724868387016144c9565b935060209150818501358181111561473b57600080fd5b85019050601f8101861361474e57600080fd5b803561475c6144ea826144a6565b81815260059190911b8201830190838101908883111561477b57600080fd5b928401925b8284101561479957833582529284019290840190614780565b80955050505050509250929050565b602080825282518282018190526000919060409081850190868401855b8281101561480b57815180516001600160a01b039081168652878201511687860152858101518686015260609081015190850152608090930192908501906001016147c5565b5091979650505050505050565b6000806000806080858703121561482e57600080fd5b84359350602085013592506040850135915060608501356001600160401b038111156146d657600080fd5b6000806040838503121561486c57600080fd5b614875836142b8565b91506145f7602084016142b8565b600080600080600060a0868803121561489b57600080fd5b8535945060208601359350604086013592506060860135915060808601356001600160401b038111156148cd57600080fd5b6148d988828901614382565b9150509295509295909350565b600080604083850312156148f957600080fd5b614902836142b8565b91506020808401356001600160401b038082111561491f57600080fd5b818601915086601f83011261493357600080fd5b81356149416144ea826144a6565b81815260059190911b8301840190848101908983111561496057600080fd5b8585015b838110156149985780358581111561497c5760008081fd5b61498a8c89838a0101614382565b845250918601918601614964565b508096505050505050509250929050565b6020808252825182820181905260009190848201906040850190845b818110156149e1578351835292840192918401916001016149c5565b50909695505050505050565b600181811c90821680614a0157607f821691505b602082108103614a2157634e487b7160e01b600052602260045260246000fd5b50919050565b634e487b7160e01b600052601260045260246000fd5b600082614a4c57614a4c614a27565b500690565b634e487b7160e01b600052603260045260246000fd5b634e487b7160e01b600052601160045260246000fd5b81810381811115610d9957610d99614a67565b634e487b7160e01b600052603160045260246000fd5b6020808252602d908201527f4552433732313a2063616c6c6572206973206e6f7420746f6b656e206f776e6560408201526c1c881bdc88185c1c1c9bdd9959609a1b606082015260800190565b600060018201614b0557614b05614a67565b5060010190565b8082028115828204841417610d9957610d99614a67565b600082614b3257614b32614a27565b500490565b80820180821115610d9957610d99614a67565b60208082526025908201527f507269636520646f6573206e6f74206d6174636820746865206c697374656420604082015264707269636560d81b606082015260800190565b601f821115610f6d57600081815260208120601f850160051c81016020861015614bb65750805b601f850160051c820191505b81811015614bd557828155600101614bc2565b505050505050565b81516001600160401b03811115614bf657614bf661433c565b614c0a81614c0484546149ed565b84614b8f565b602080601f831160018114614c3f5760008415614c275750858301515b600019600386901b1c1916600185901b178555614bd5565b600085815260208120601f198616915b82811015614c6e57888601518255948401946001909101908401614c4f565b5085821015614c8c5787850151600019600388901b60f8161c191681555b5050505050600190811b01905550565b60208082526032908201527f4552433732313a207472616e7366657220746f206e6f6e20455243373231526560408201527131b2b4bb32b91034b6b83632b6b2b73a32b960711b606082015260800190565b60008351614d0081846020880161423c565b835190830190614d1481836020880161423c565b01949350505050565b60208082526025908201527f4552433732313a207472616e736665722066726f6d20696e636f72726563742060408201526437bbb732b960d91b606082015260800190565b6001600160a01b0385811682528416602082015260408101839052608060608201819052600090614d9590830184614260565b9695505050505050565b600060208284031215614db157600080fd5b8151610fa38161420956fea264697066735822122064f4e010c6a3ea66c62914075dbfe6445ce5c07c4260b32dc78ab4879a2262dd64736f6c63430008110033",
  "devdoc": {
    "kind": "dev",
    "methods": {
      "approve(address,uint256)": {
        "details": "See {IERC721-approve}."
      },
      "balanceOf(address)": {
        "details": "See {IERC721-balanceOf}."
      },
      "getApproved(uint256)": {
        "details": "See {IERC721-getApproved}."
      },
      "isApprovedForAll(address,address)": {
        "details": "See {IERC721-isApprovedForAll}."
      },
      "name()": {
        "details": "See {IERC721Metadata-name}."
      },
      "owner()": {
        "details": "Returns the address of the current owner."
      },
      "ownerOf(uint256)": {
        "details": "See {IERC721-ownerOf}."
      },
      "renounceOwnership()": {
        "details": "Leaves the contract without owner. It will not be possible to call `onlyOwner` functions. Can only be called by the current owner. NOTE: Renouncing ownership will leave the contract without an owner, thereby disabling any functionality that is only available to the owner."
      },
      "safeTransferFrom(address,address,uint256)": {
        "details": "See {IERC721-safeTransferFrom}."
      },
      "safeTransferFrom(address,address,uint256,bytes)": {
        "details": "See {IERC721-safeTransferFrom}."
      },
      "setApprovalForAll(address,bool)": {
        "details": "See {IERC721-setApprovalForAll}."
      },
      "symbol()": {
        "details": "See {IERC721Metadata-symbol}."
      },
      "tokenByIndex(uint256)": {
        "details": "See {IERC721Enumerable-tokenByIndex}."
      },
      "tokenOfOwnerByIndex(address,uint256)": {
        "details": "See {IERC721Enumerable-tokenOfOwnerByIndex}."
      },
      "totalSupply()": {
        "details": "See {IERC721Enumerable-totalSupply}."
      },
      "transferFrom(address,address,uint256)": {
        "details": "See {IERC721-transferFrom}."
      },
      "transferOwnership(address)": {
        "details": "Transfers ownership of the contract to a new account (`newOwner`). Can only be called by the current owner."
      }
    },
    "version": 1
  },
  "userdoc": {
    "kind": "user",
    "methods": {},
    "version": 1
  },
  "storageLayout": {
    "storage": [
      {
        "astId": 166,
        "contract": "contracts/YourCollectible.sol:YourCollectible",
        "label": "_name",
        "offset": 0,
        "slot": "0",
        "type": "t_string_storage"
      },
      {
        "astId": 168,
        "contract": "contracts/YourCollectible.sol:YourCollectible",
        "label": "_symbol",
        "offset": 0,
        "slot": "1",
        "type": "t_string_storage"
      },
      {
        "astId": 172,
        "contract": "contracts/YourCollectible.sol:YourCollectible",
        "label": "_owners",
        "offset": 0,
        "slot": "2",
        "type": "t_mapping(t_uint256,t_address)"
      },
      {
        "astId": 176,
        "contract": "contracts/YourCollectible.sol:YourCollectible",
        "label": "_balances",
        "offset": 0,
        "slot": "3",
        "type": "t_mapping(t_address,t_uint256)"
      },
      {
        "astId": 180,
        "contract": "contracts/YourCollectible.sol:YourCollectible",
        "label": "_tokenApprovals",
        "offset": 0,
        "slot": "4",
        "type": "t_mapping(t_uint256,t_address)"
      },
      {
        "astId": 186,
        "contract": "contracts/YourCollectible.sol:YourCollectible",
        "label": "_operatorApprovals",
        "offset": 0,
        "slot": "5",
        "type": "t_mapping(t_address,t_mapping(t_address,t_bool))"
      },
      {
        "astId": 1216,
        "contract": "contracts/YourCollectible.sol:YourCollectible",
        "label": "_ownedTokens",
        "offset": 0,
        "slot": "6",
        "type": "t_mapping(t_address,t_mapping(t_uint256,t_uint256))"
      },
      {
        "astId": 1220,
        "contract": "contracts/YourCollectible.sol:YourCollectible",
        "label": "_ownedTokensIndex",
        "offset": 0,
        "slot": "7",
        "type": "t_mapping(t_uint256,t_uint256)"
      },
      {
        "astId": 1223,
        "contract": "contracts/YourCollectible.sol:YourCollectible",
        "label": "_allTokens",
        "offset": 0,
        "slot": "8",
        "type": "t_array(t_uint256)dyn_storage"
      },
      {
        "astId": 1227,
        "contract": "contracts/YourCollectible.sol:YourCollectible",
        "label": "_allTokensIndex",
        "offset": 0,
        "slot": "9",
        "type": "t_mapping(t_uint256,t_uint256)"
      },
      {
        "astId": 1571,
        "contract": "contracts/YourCollectible.sol:YourCollectible",
        "label": "_tokenURIs",
        "offset": 0,
        "slot": "10",
        "type": "t_mapping(t_uint256,t_string_storage)"
      },
      {
        "astId": 7,
        "contract": "contracts/YourCollectible.sol:YourCollectible",
        "label": "_owner",
        "offset": 0,
        "slot": "11",
        "type": "t_address"
      },
      {
        "astId": 3831,
        "contract": "contracts/YourCollectible.sol:YourCollectible",
        "label": "tokenIdCounter",
        "offset": 0,
        "slot": "12",
        "type": "t_struct(Counter)2135_storage"
      },
      {
        "astId": 3835,
        "contract": "contracts/YourCollectible.sol:YourCollectible",
        "label": "tokenPrices",
        "offset": 0,
        "slot": "13",
        "type": "t_mapping(t_uint256,t_uint256)"
      },
      {
        "astId": 3839,
        "contract": "contracts/YourCollectible.sol:YourCollectible",
        "label": "usedHashes",
        "offset": 0,
        "slot": "14",
        "type": "t_mapping(t_bytes32,t_bool)"
      },
      {
        "astId": 3843,
        "contract": "contracts/YourCollectible.sol:YourCollectible",
        "label": "nonces",
        "offset": 0,
        "slot": "15",
        "type": "t_mapping(t_uint256,t_uint256)"
      },
      {
        "astId": 3847,
        "contract": "contracts/YourCollectible.sol:YourCollectible",
        "label": "_creators",
        "offset": 0,
        "slot": "16",
        "type": "t_mapping(t_uint256,t_address)"
      },
      {
        "astId": 3850,
        "contract": "contracts/YourCollectible.sol:YourCollectible",
        "label": "royaltyPercentage",
        "offset": 0,
        "slot": "17",
        "type": "t_uint256"
      },
      {
        "astId": 3856,
        "contract": "contracts/YourCollectible.sol:YourCollectible",
        "label": "tokenTransactionHistory",
        "offset": 0,
        "slot": "18",
        "type": "t_mapping(t_uint256,t_array(t_struct(TransactionHistory)4335_storage)dyn_storage)"
      },
      {
        "astId": 3859,
        "contract": "contracts/YourCollectible.sol:YourCollectible",
        "label": "mysteryBoxPrice",
        "offset": 0,
        "slot": "19",
        "type": "t_uint256"
      },
      {
        "astId": 3862,
        "contract": "contracts/YourCollectible.sol:YourCollectible",
        "label": "availableTokens",
        "offset": 0,
        "slot": "20",
        "type": "t_array(t_uint256)dyn_storage"
      },
      {
        "astId": 3866,
        "contract": "contracts/YourCollectible.sol:YourCollectible",
        "label": "holdingStartTime",
        "offset": 0,
        "slot": "21",
        "type": "t_mapping(t_uint256,t_uint256)"
      },
      {
        "astId": 3870,
        "contract": "contracts/YourCollectible.sol:YourCollectible",
        "label": "loyaltyRewardClaimed",
        "offset": 0,
        "slot": "22",
        "type": "t_mapping(t_uint256,t_bool)"
      },
      {
        "astId": 3873,
        "contract": "contracts/YourCollectible.sol:YourCollectible",
        "label": "loyaltyPeriod",
        "offset": 0,
        "slot": "23",
        "type": "t_uint256"
      },
      {
        "astId": 3876,
        "contract": "contracts/YourCollectible.sol:YourCollectible",
        "label": "profitSharingAddresses",
        "offset": 0,
        "slot": "24",
        "type": "t_array(t_address)dyn_storage"
      },
      {
        "astId": 3879,
        "contract": "contracts/YourCollectible.sol:YourCollectible",
        "label": "profitSharingPercentages",
        "offset": 0,
        "slot": "25",
        "type": "t_array(t_uint256)dyn_storage"
      },
      {
        "astId": 4326,
        "contract": "contracts/YourCollectible.sol:YourCollectible",
        "label": "tokenRarities",
        "offset": 0,
        "slot": "26",
        "type": "t_mapping(t_uint256,t_enum(Rarity)4321)"
      },
      {
        "astId": 4355,
        "contract": "contracts/YourCollectible.sol:YourCollectible",
        "label": "auctions",
        "offset": 0,
        "slot": "27",
        "type": "t_mapping(t_uint256,t_struct(Auction)4350_storage)"
      },
      {
        "astId": 4371,
        "contract": "contracts/YourCollectible.sol:YourCollectible",
        "label": "rentals",
        "offset": 0,
        "slot": "28",
        "type": "t_mapping(t_uint256,t_struct(Rental)4366_storage)"
      },
      {
        "astId": 4383,
        "contract": "contracts/YourCollectible.sol:YourCollectible",
        "label": "fractionalOwnerships",
        "offset": 0,
        "slot": "29",
        "type": "t_mapping(t_uint256,t_struct(FractionalOwnership)4378_storage)"
      }
    ],
    "types": {
      "t_address": {
        "encoding": "inplace",
        "label": "address",
        "numberOfBytes": "20"
      },
      "t_array(t_address)dyn_storage": {
        "base": "t_address",
        "encoding": "dynamic_array",
        "label": "address[]",
        "numberOfBytes": "32"
      },
      "t_array(t_struct(TransactionHistory)4335_storage)dyn_storage": {
        "base": "t_struct(TransactionHistory)4335_storage",
        "encoding": "dynamic_array",
        "label": "struct YourCollectible.TransactionHistory[]",
        "numberOfBytes": "32"
      },
      "t_array(t_uint256)dyn_storage": {
        "base": "t_uint256",
        "encoding": "dynamic_array",
        "label": "uint256[]",
        "numberOfBytes": "32"
      },
      "t_bool": {
        "encoding": "inplace",
        "label": "bool",
        "numberOfBytes": "1"
      },
      "t_bytes32": {
        "encoding": "inplace",
        "label": "bytes32",
        "numberOfBytes": "32"
      },
      "t_enum(Rarity)4321": {
        "encoding": "inplace",
        "label": "enum YourCollectible.Rarity",
        "numberOfBytes": "1"
      },
      "t_mapping(t_address,t_bool)": {
        "encoding": "mapping",
        "key": "t_address",
        "label": "mapping(address => bool)",
        "numberOfBytes": "32",
        "value": "t_bool"
      },
      "t_mapping(t_address,t_mapping(t_address,t_bool))": {
        "encoding": "mapping",
        "key": "t_address",
        "label": "mapping(address => mapping(address => bool))",
        "numberOfBytes": "32",
        "value": "t_mapping(t_address,t_bool)"
      },
      "t_mapping(t_address,t_mapping(t_uint256,t_uint256))": {
        "encoding": "mapping",
        "key": "t_address",
        "label": "mapping(address => mapping(uint256 => uint256))",
        "numberOfBytes": "32",
        "value": "t_mapping(t_uint256,t_uint256)"
      },
      "t_mapping(t_address,t_uint256)": {
        "encoding": "mapping",
        "key": "t_address",
        "label": "mapping(address => uint256)",
        "numberOfBytes": "32",
        "value": "t_uint256"
      },
      "t_mapping(t_bytes32,t_bool)": {
        "encoding": "mapping",
        "key": "t_bytes32",
        "label": "mapping(bytes32 => bool)",
        "numberOfBytes": "32",
        "value": "t_bool"
      },
      "t_mapping(t_uint256,t_address)": {
        "encoding": "mapping",
        "key": "t_uint256",
        "label": "mapping(uint256 => address)",
        "numberOfBytes": "32",
        "value": "t_address"
      },
      "t_mapping(t_uint256,t_array(t_struct(TransactionHistory)4335_storage)dyn_storage)": {
        "encoding": "mapping",
        "key": "t_uint256",
        "label": "mapping(uint256 => struct YourCollectible.TransactionHistory[])",
        "numberOfBytes": "32",
        "value": "t_array(t_struct(TransactionHistory)4335_storage)dyn_storage"
      },
      "t_mapping(t_uint256,t_bool)": {
        "encoding": "mapping",
        "key": "t_uint256",
        "label": "mapping(uint256 => bool)",
        "numberOfBytes": "32",
        "value": "t_bool"
      },
      "t_mapping(t_uint256,t_enum(Rarity)4321)": {
        "encoding": "mapping",
        "key": "t_uint256",
        "label": "mapping(uint256 => enum YourCollectible.Rarity)",
        "numberOfBytes": "32",
        "value": "t_enum(Rarity)4321"
      },
      "t_mapping(t_uint256,t_string_storage)": {
        "encoding": "mapping",
        "key": "t_uint256",
        "label": "mapping(uint256 => string)",
        "numberOfBytes": "32",
        "value": "t_string_storage"
      },
      "t_mapping(t_uint256,t_struct(Auction)4350_storage)": {
        "encoding": "mapping",
        "key": "t_uint256",
        "label": "mapping(uint256 => struct YourCollectible.Auction)",
        "numberOfBytes": "32",
        "value": "t_struct(Auction)4350_storage"
      },
      "t_mapping(t_uint256,t_struct(FractionalOwnership)4378_storage)": {
        "encoding": "mapping",
        "key": "t_uint256",
        "label": "mapping(uint256 => struct YourCollectible.FractionalOwnership)",
        "numberOfBytes": "32",
        "value": "t_struct(FractionalOwnership)4378_storage"
      },
      "t_mapping(t_uint256,t_struct(Rental)4366_storage)": {
        "encoding": "mapping",
        "key": "t_uint256",
        "label": "mapping(uint256 => struct YourCollectible.Rental)",
        "numberOfBytes": "32",
        "value": "t_struct(Rental)4366_storage"
      },
      "t_mapping(t_uint256,t_uint256)": {
        "encoding": "mapping",
        "key": "t_uint256",
        "label": "mapping(uint256 => uint256)",
        "numberOfBytes": "32",
        "value": "t_uint256"
      },
      "t_string_storage": {
        "encoding": "bytes",
        "label": "string",
        "numberOfBytes": "32"
      },
      "t_struct(Auction)4350_storage": {
        "encoding": "inplace",
        "label": "struct YourCollectible.Auction",
        "members": [
          {
            "astId": 4337,
            "contract": "contracts/YourCollectible.sol:YourCollectible",
            "label": "seller",
            "offset": 0,
            "slot": "0",
            "type": "t_address"
          },
          {
            "astId": 4339,
            "contract": "contracts/YourCollectible.sol:YourCollectible",
            "label": "tokenId",
            "offset": 0,
            "slot": "1",
            "type": "t_uint256"
          },
          {
            "astId": 4341,
            "contract": "contracts/YourCollectible.sol:YourCollectible",
            "label": "minBid",
            "offset": 0,
            "slot": "2",
            "type": "t_uint256"
          },
          {
            "astId": 4343,
            "contract": "contracts/YourCollectible.sol:YourCollectible",
            "label": "highestBid",
            "offset": 0,
            "slot": "3",
            "type": "t_uint256"
          },
          {
            "astId": 4345,
            "contract": "contracts/YourCollectible.sol:YourCollectible",
            "label": "highestBidder",
            "offset": 0,
            "slot": "4",
            "type": "t_address"
          },
          {
            "astId": 4347,
            "contract": "contracts/YourCollectible.sol:YourCollectible",
            "label": "endTime",
            "offset": 0,
            "slot": "5",
            "type": "t_uint256"
          },
          {
            "astId": 4349,
            "contract": "contracts/YourCollectible.sol:YourCollectible",
            "label": "active",
            "offset": 0,
            "slot": "6",
            "type": "t_bool"
          }
        ],
        "numberOfBytes": "224"
      },
      "t_struct(Counter)2135_storage": {
        "encoding": "inplace",
        "label": "struct Counters.Counter",
        "members": [
          {
            "astId": 2134,
            "contract": "contracts/YourCollectible.sol:YourCollectible",
            "label": "_value",
            "offset": 0,
            "slot": "0",
            "type": "t_uint256"
          }
        ],
        "numberOfBytes": "32"
      },
      "t_struct(FractionalOwnership)4378_storage": {
        "encoding": "inplace",
        "label": "struct YourCollectible.FractionalOwnership",
        "members": [
          {
            "astId": 4373,
            "contract": "contracts/YourCollectible.sol:YourCollectible",
            "label": "totalShares",
            "offset": 0,
            "slot": "0",
            "type": "t_uint256"
          },
          {
            "astId": 4377,
            "contract": "contracts/YourCollectible.sol:YourCollectible",
            "label": "sharesOwned",
            "offset": 0,
            "slot": "1",
            "type": "t_mapping(t_address,t_uint256)"
          }
        ],
        "numberOfBytes": "64"
      },
      "t_struct(Rental)4366_storage": {
        "encoding": "inplace",
        "label": "struct YourCollectible.Rental",
        "members": [
          {
            "astId": 4357,
            "contract": "contracts/YourCollectible.sol:YourCollectible",
            "label": "renter",
            "offset": 0,
            "slot": "0",
            "type": "t_address"
          },
          {
            "astId": 4359,
            "contract": "contracts/YourCollectible.sol:YourCollectible",
            "label": "rentPrice",
            "offset": 0,
            "slot": "1",
            "type": "t_uint256"
          },
          {
            "astId": 4361,
            "contract": "contracts/YourCollectible.sol:YourCollectible",
            "label": "startTime",
            "offset": 0,
            "slot": "2",
            "type": "t_uint256"
          },
          {
            "astId": 4363,
            "contract": "contracts/YourCollectible.sol:YourCollectible",
            "label": "duration",
            "offset": 0,
            "slot": "3",
            "type": "t_uint256"
          },
          {
            "astId": 4365,
            "contract": "contracts/YourCollectible.sol:YourCollectible",
            "label": "active",
            "offset": 0,
            "slot": "4",
            "type": "t_bool"
          }
        ],
        "numberOfBytes": "160"
      },
      "t_struct(TransactionHistory)4335_storage": {
        "encoding": "inplace",
        "label": "struct YourCollectible.TransactionHistory",
        "members": [
          {
            "astId": 4328,
            "contract": "contracts/YourCollectible.sol:YourCollectible",
            "label": "seller",
            "offset": 0,
            "slot": "0",
            "type": "t_address"
          },
          {
            "astId": 4330,
            "contract": "contracts/YourCollectible.sol:YourCollectible",
            "label": "buyer",
            "offset": 0,
            "slot": "1",
            "type": "t_address"
          },
          {
            "astId": 4332,
            "contract": "contracts/YourCollectible.sol:YourCollectible",
            "label": "price",
            "offset": 0,
            "slot": "2",
            "type": "t_uint256"
          },
          {
            "astId": 4334,
            "contract": "contracts/YourCollectible.sol:YourCollectible",
            "label": "timestamp",
            "offset": 0,
            "slot": "3",
            "type": "t_uint256"
          }
        ],
        "numberOfBytes": "128"
      },
      "t_uint256": {
        "encoding": "inplace",
        "label": "uint256",
        "numberOfBytes": "32"
      }
    }
  }
}